{
  "_format": "hh-sol-artifact-1",
  "contractName": "Token",
  "sourceName": "Contracts/token.sol",
  "abi": [
    {
      "inputs": [
        {
          "internalType": "address",
          "name": "",
          "type": "address"
        }
      ],
      "name": "balances",
      "outputs": [
        {
          "internalType": "uint256",
          "name": "",
          "type": "uint256"
        }
      ],
      "stateMutability": "view",
      "type": "function"
    },
    {
      "inputs": [
        {
          "internalType": "address",
          "name": "_address",
          "type": "address"
        },
        {
          "internalType": "uint256",
          "name": "_value",
          "type": "uint256"
        }
      ],
      "name": "burn",
      "outputs": [],
      "stateMutability": "nonpayable",
      "type": "function"
    },
    {
      "inputs": [
        {
          "internalType": "uint256",
          "name": "_value",
          "type": "uint256"
        }
      ],
      "name": "exampleFunction",
      "outputs": [],
      "stateMutability": "nonpayable",
      "type": "function"
    },
    {
      "inputs": [
        {
          "internalType": "address",
          "name": "_address",
          "type": "address"
        },
        {
          "internalType": "uint256",
          "name": "_value",
          "type": "uint256"
        }
      ],
      "name": "mint",
      "outputs": [],
      "stateMutability": "nonpayable",
      "type": "function"
    },
    {
      "inputs": [],
      "name": "tokenAbbrv",
      "outputs": [
        {
          "internalType": "string",
          "name": "",
          "type": "string"
        }
      ],
      "stateMutability": "view",
      "type": "function"
    },
    {
      "inputs": [],
      "name": "tokenName",
      "outputs": [
        {
          "internalType": "string",
          "name": "",
          "type": "string"
        }
      ],
      "stateMutability": "view",
      "type": "function"
    },
    {
      "inputs": [],
      "name": "totalSupply",
      "outputs": [
        {
          "internalType": "uint256",
          "name": "",
          "type": "uint256"
        }
      ],
      "stateMutability": "view",
      "type": "function"
    }
  ],
  "bytecode": "0x60806040526040518060400160405280600581526020017f544f4b454e000000000000000000000000000000000000000000000000000000815250600090816200004a919062000325565b506040518060400160405280600381526020017f544b4e00000000000000000000000000000000000000000000000000000000008152506001908162000091919062000325565b506000600255348015620000a457600080fd5b506200040c565b600081519050919050565b7f4e487b7100000000000000000000000000000000000000000000000000000000600052604160045260246000fd5b7f4e487b7100000000000000000000000000000000000000000000000000000000600052602260045260246000fd5b600060028204905060018216806200012d57607f821691505b602082108103620001435762000142620000e5565b5b50919050565b60008190508160005260206000209050919050565b60006020601f8301049050919050565b600082821b905092915050565b600060088302620001ad7fffffffffffffffffffffffffffffffffffffffffffffffffffffffffffffffff826200016e565b620001b986836200016e565b95508019841693508086168417925050509392505050565b6000819050919050565b6000819050919050565b60006200020662000200620001fa84620001d1565b620001db565b620001d1565b9050919050565b6000819050919050565b6200022283620001e5565b6200023a62000231826200020d565b8484546200017b565b825550505050565b600090565b6200025162000242565b6200025e81848462000217565b505050565b5b8181101562000286576200027a60008262000247565b60018101905062000264565b5050565b601f821115620002d5576200029f8162000149565b620002aa846200015e565b81016020851015620002ba578190505b620002d2620002c9856200015e565b83018262000263565b50505b505050565b600082821c905092915050565b6000620002fa60001984600802620002da565b1980831691505092915050565b6000620003158383620002e7565b9150826002028217905092915050565b6200033082620000ab565b67ffffffffffffffff8111156200034c576200034b620000b6565b5b62000358825462000114565b620003658282856200028a565b600060209050601f8311600181146200039d576000841562000388578287015190505b62000394858262000307565b86555062000404565b601f198416620003ad8662000149565b60005b82811015620003d757848901518255600182019150602085019450602081019050620003b0565b86831015620003f75784890151620003f3601f891682620002e7565b8355505b6001600288020188555050505b505050505050565b6109e7806200041c6000396000f3fe608060405234801561001057600080fd5b506004361061007d5760003560e01c80636c02a9311161005b5780636c02a931146100ec5780637a8ff07d1461010a578063934bc29d146101285780639dc29fac146101445761007d565b806318160ddd1461008257806327e235e3146100a057806340c10f19146100d0575b600080fd5b61008a610160565b6040516100979190610551565b60405180910390f35b6100ba60048036038101906100b591906105cf565b610166565b6040516100c79190610551565b60405180910390f35b6100ea60048036038101906100e59190610628565b61017e565b005b6100f4610260565b60405161010191906106f8565b60405180910390f35b6101126102ee565b60405161011f91906106f8565b60405180910390f35b610142600480360381019061013d919061071a565b61037c565b005b61015e60048036038101906101599190610628565b6103d4565b005b60025481565b60036020528060005260406000206000915090505481565b600073ffffffffffffffffffffffffffffffffffffffff168273ffffffffffffffffffffffffffffffffffffffff16036101ed576040517f08c379a00000000000000000000000000000000000000000000000000000000081526004016101e490610793565b60405180910390fd5b80600260008282546101ff91906107e2565b9250508190555080600360008473ffffffffffffffffffffffffffffffffffffffff1673ffffffffffffffffffffffffffffffffffffffff168152602001908152602001600020600082825461025591906107e2565b925050819055505050565b6000805461026d90610845565b80601f016020809104026020016040519081016040528092919081815260200182805461029990610845565b80156102e65780601f106102bb576101008083540402835291602001916102e6565b820191906000526020600020905b8154815290600101906020018083116102c957829003601f168201915b505050505081565b600180546102fb90610845565b80601f016020809104026020016040519081016040528092919081815260200182805461032790610845565b80156103745780601f1061034957610100808354040283529160200191610374565b820191906000526020600020905b81548152906001019060200180831161035757829003601f168201915b505050505081565b6000811161038d5761038c610876565b5b600a8110156103d1576040517f08c379a00000000000000000000000000000000000000000000000000000000081526004016103c8906108f1565b60405180910390fd5b50565b600073ffffffffffffffffffffffffffffffffffffffff168273ffffffffffffffffffffffffffffffffffffffff1603610443576040517f08c379a000000000000000000000000000000000000000000000000000000000815260040161043a90610793565b60405180910390fd5b80600360008473ffffffffffffffffffffffffffffffffffffffff1673ffffffffffffffffffffffffffffffffffffffff1681526020019081526020016000205410156104c5576040517f08c379a00000000000000000000000000000000000000000000000000000000081526004016104bc9061095d565b60405180910390fd5b80600260008282546104d7919061097d565b9250508190555080600360008473ffffffffffffffffffffffffffffffffffffffff1673ffffffffffffffffffffffffffffffffffffffff168152602001908152602001600020600082825461052d919061097d565b925050819055505050565b6000819050919050565b61054b81610538565b82525050565b60006020820190506105666000830184610542565b92915050565b600080fd5b600073ffffffffffffffffffffffffffffffffffffffff82169050919050565b600061059c82610571565b9050919050565b6105ac81610591565b81146105b757600080fd5b50565b6000813590506105c9816105a3565b92915050565b6000602082840312156105e5576105e461056c565b5b60006105f3848285016105ba565b91505092915050565b61060581610538565b811461061057600080fd5b50565b600081359050610622816105fc565b92915050565b6000806040838503121561063f5761063e61056c565b5b600061064d858286016105ba565b925050602061065e85828601610613565b9150509250929050565b600081519050919050565b600082825260208201905092915050565b60005b838110156106a2578082015181840152602081019050610687565b60008484015250505050565b6000601f19601f8301169050919050565b60006106ca82610668565b6106d48185610673565b93506106e4818560208601610684565b6106ed816106ae565b840191505092915050565b6000602082019050818103600083015261071281846106bf565b905092915050565b6000602082840312156107305761072f61056c565b5b600061073e84828501610613565b91505092915050565b7f496e76616c696420616464726573730000000000000000000000000000000000600082015250565b600061077d600f83610673565b915061078882610747565b602082019050919050565b600060208201905081810360008301526107ac81610770565b9050919050565b7f4e487b7100000000000000000000000000000000000000000000000000000000600052601160045260246000fd5b60006107ed82610538565b91506107f883610538565b92508282019050808211156108105761080f6107b3565b5b92915050565b7f4e487b7100000000000000000000000000000000000000000000000000000000600052602260045260246000fd5b6000600282049050600182168061085d57607f821691505b6020821081036108705761086f610816565b5b50919050565b7f4e487b7100000000000000000000000000000000000000000000000000000000600052600160045260246000fd5b7f56616c7565206d757374206265206174206c6561737420313000000000000000600082015250565b60006108db601983610673565b91506108e6826108a5565b602082019050919050565b6000602082019050818103600083015261090a816108ce565b9050919050565b7f496e73756666696369656e742062616c616e6365000000000000000000000000600082015250565b6000610947601483610673565b915061095282610911565b602082019050919050565b600060208201905081810360008301526109768161093a565b9050919050565b600061098882610538565b915061099383610538565b92508282039050818111156109ab576109aa6107b3565b5b9291505056fea264697066735822122067f306f36fbc7337ac159451066f90790b5029dbb61ff4e530decbb076235edf64736f6c63430008120033",
  "linkReferences": {},
  "deployedLinkReferences": {}
}